{
  "contractName": "GovernorAlpha",
  "abi": [
    {
      "inputs": [
        {
          "internalType": "address",
          "name": "timelock_",
          "type": "address"
        },
        {
          "internalType": "address",
          "name": "srn_",
          "type": "address"
        },
        {
          "internalType": "address",
          "name": "guardian_",
          "type": "address"
        },
        {
          "internalType": "uint256",
          "name": "votePeriodBlocks",
          "type": "uint256"
        }
      ],
      "stateMutability": "nonpayable",
      "type": "constructor"
    },
    {
      "anonymous": false,
      "inputs": [
        {
          "indexed": false,
          "internalType": "uint256",
          "name": "id",
          "type": "uint256"
        }
      ],
      "name": "ProposalCanceled",
      "type": "event"
    },
    {
      "anonymous": false,
      "inputs": [
        {
          "indexed": false,
          "internalType": "uint256",
          "name": "id",
          "type": "uint256"
        },
        {
          "indexed": false,
          "internalType": "address",
          "name": "proposer",
          "type": "address"
        },
        {
          "indexed": false,
          "internalType": "address[]",
          "name": "targets",
          "type": "address[]"
        },
        {
          "indexed": false,
          "internalType": "uint256[]",
          "name": "values",
          "type": "uint256[]"
        },
        {
          "indexed": false,
          "internalType": "string[]",
          "name": "signatures",
          "type": "string[]"
        },
        {
          "indexed": false,
          "internalType": "bytes[]",
          "name": "calldatas",
          "type": "bytes[]"
        },
        {
          "indexed": false,
          "internalType": "uint256",
          "name": "startBlock",
          "type": "uint256"
        },
        {
          "indexed": false,
          "internalType": "uint256",
          "name": "endBlock",
          "type": "uint256"
        },
        {
          "indexed": false,
          "internalType": "string",
          "name": "description",
          "type": "string"
        }
      ],
      "name": "ProposalCreated",
      "type": "event"
    },
    {
      "anonymous": false,
      "inputs": [
        {
          "indexed": false,
          "internalType": "uint256",
          "name": "id",
          "type": "uint256"
        }
      ],
      "name": "ProposalExecuted",
      "type": "event"
    },
    {
      "anonymous": false,
      "inputs": [
        {
          "indexed": false,
          "internalType": "uint256",
          "name": "id",
          "type": "uint256"
        },
        {
          "indexed": false,
          "internalType": "uint256",
          "name": "eta",
          "type": "uint256"
        }
      ],
      "name": "ProposalQueued",
      "type": "event"
    },
    {
      "anonymous": false,
      "inputs": [
        {
          "indexed": false,
          "internalType": "address",
          "name": "voter",
          "type": "address"
        },
        {
          "indexed": false,
          "internalType": "uint256",
          "name": "proposalId",
          "type": "uint256"
        },
        {
          "indexed": false,
          "internalType": "bool",
          "name": "support",
          "type": "bool"
        },
        {
          "indexed": false,
          "internalType": "uint256",
          "name": "votes",
          "type": "uint256"
        }
      ],
      "name": "VoteCast",
      "type": "event"
    },
    {
      "inputs": [],
      "name": "BALLOT_TYPEHASH",
      "outputs": [
        {
          "internalType": "bytes32",
          "name": "",
          "type": "bytes32"
        }
      ],
      "stateMutability": "view",
      "type": "function"
    },
    {
      "inputs": [],
      "name": "DOMAIN_TYPEHASH",
      "outputs": [
        {
          "internalType": "bytes32",
          "name": "",
          "type": "bytes32"
        }
      ],
      "stateMutability": "view",
      "type": "function"
    },
    {
      "inputs": [],
      "name": "guardian",
      "outputs": [
        {
          "internalType": "address",
          "name": "",
          "type": "address"
        }
      ],
      "stateMutability": "view",
      "type": "function"
    },
    {
      "inputs": [
        {
          "internalType": "address",
          "name": "",
          "type": "address"
        }
      ],
      "name": "latestProposalIds",
      "outputs": [
        {
          "internalType": "uint256",
          "name": "",
          "type": "uint256"
        }
      ],
      "stateMutability": "view",
      "type": "function"
    },
    {
      "inputs": [],
      "name": "name",
      "outputs": [
        {
          "internalType": "string",
          "name": "",
          "type": "string"
        }
      ],
      "stateMutability": "view",
      "type": "function"
    },
    {
      "inputs": [],
      "name": "proposalCount",
      "outputs": [
        {
          "internalType": "uint256",
          "name": "",
          "type": "uint256"
        }
      ],
      "stateMutability": "view",
      "type": "function"
    },
    {
      "inputs": [
        {
          "internalType": "uint256",
          "name": "",
          "type": "uint256"
        }
      ],
      "name": "proposals",
      "outputs": [
        {
          "internalType": "uint256",
          "name": "id",
          "type": "uint256"
        },
        {
          "internalType": "address",
          "name": "proposer",
          "type": "address"
        },
        {
          "internalType": "uint256",
          "name": "eta",
          "type": "uint256"
        },
        {
          "internalType": "uint256",
          "name": "startBlock",
          "type": "uint256"
        },
        {
          "internalType": "uint256",
          "name": "endBlock",
          "type": "uint256"
        },
        {
          "internalType": "uint256",
          "name": "forVotes",
          "type": "uint256"
        },
        {
          "internalType": "uint256",
          "name": "againstVotes",
          "type": "uint256"
        },
        {
          "internalType": "bool",
          "name": "canceled",
          "type": "bool"
        },
        {
          "internalType": "bool",
          "name": "executed",
          "type": "bool"
        }
      ],
      "stateMutability": "view",
      "type": "function"
    },
    {
      "inputs": [],
      "name": "sirenToken",
      "outputs": [
        {
          "internalType": "contract SirenTokenInterface",
          "name": "",
          "type": "address"
        }
      ],
      "stateMutability": "view",
      "type": "function"
    },
    {
      "inputs": [],
      "name": "timelock",
      "outputs": [
        {
          "internalType": "contract TimelockInterface",
          "name": "",
          "type": "address"
        }
      ],
      "stateMutability": "view",
      "type": "function"
    },
    {
      "inputs": [],
      "name": "quorumVotes",
      "outputs": [
        {
          "internalType": "uint256",
          "name": "",
          "type": "uint256"
        }
      ],
      "stateMutability": "pure",
      "type": "function"
    },
    {
      "inputs": [],
      "name": "proposalThreshold",
      "outputs": [
        {
          "internalType": "uint256",
          "name": "",
          "type": "uint256"
        }
      ],
      "stateMutability": "pure",
      "type": "function"
    },
    {
      "inputs": [],
      "name": "proposalMaxOperations",
      "outputs": [
        {
          "internalType": "uint256",
          "name": "",
          "type": "uint256"
        }
      ],
      "stateMutability": "pure",
      "type": "function"
    },
    {
      "inputs": [],
      "name": "votingDelay",
      "outputs": [
        {
          "internalType": "uint256",
          "name": "",
          "type": "uint256"
        }
      ],
      "stateMutability": "pure",
      "type": "function"
    },
    {
      "inputs": [],
      "name": "votingPeriod",
      "outputs": [
        {
          "internalType": "uint256",
          "name": "",
          "type": "uint256"
        }
      ],
      "stateMutability": "view",
      "type": "function"
    },
    {
      "inputs": [
        {
          "internalType": "address[]",
          "name": "targets",
          "type": "address[]"
        },
        {
          "internalType": "uint256[]",
          "name": "values",
          "type": "uint256[]"
        },
        {
          "internalType": "string[]",
          "name": "signatures",
          "type": "string[]"
        },
        {
          "internalType": "bytes[]",
          "name": "calldatas",
          "type": "bytes[]"
        },
        {
          "internalType": "string",
          "name": "description",
          "type": "string"
        }
      ],
      "name": "propose",
      "outputs": [
        {
          "internalType": "uint256",
          "name": "",
          "type": "uint256"
        }
      ],
      "stateMutability": "nonpayable",
      "type": "function"
    },
    {
      "inputs": [
        {
          "internalType": "uint256",
          "name": "proposalId",
          "type": "uint256"
        }
      ],
      "name": "queue",
      "outputs": [],
      "stateMutability": "nonpayable",
      "type": "function"
    },
    {
      "inputs": [
        {
          "internalType": "uint256",
          "name": "proposalId",
          "type": "uint256"
        }
      ],
      "name": "execute",
      "outputs": [],
      "stateMutability": "payable",
      "type": "function"
    },
    {
      "inputs": [
        {
          "internalType": "uint256",
          "name": "proposalId",
          "type": "uint256"
        }
      ],
      "name": "cancel",
      "outputs": [],
      "stateMutability": "nonpayable",
      "type": "function"
    },
    {
      "inputs": [
        {
          "internalType": "uint256",
          "name": "proposalId",
          "type": "uint256"
        }
      ],
      "name": "getActions",
      "outputs": [
        {
          "internalType": "address[]",
          "name": "targets",
          "type": "address[]"
        },
        {
          "internalType": "uint256[]",
          "name": "values",
          "type": "uint256[]"
        },
        {
          "internalType": "string[]",
          "name": "signatures",
          "type": "string[]"
        },
        {
          "internalType": "bytes[]",
          "name": "calldatas",
          "type": "bytes[]"
        }
      ],
      "stateMutability": "view",
      "type": "function"
    },
    {
      "inputs": [
        {
          "internalType": "uint256",
          "name": "proposalId",
          "type": "uint256"
        },
        {
          "internalType": "address",
          "name": "voter",
          "type": "address"
        }
      ],
      "name": "getReceipt",
      "outputs": [
        {
          "components": [
            {
              "internalType": "bool",
              "name": "hasVoted",
              "type": "bool"
            },
            {
              "internalType": "bool",
              "name": "support",
              "type": "bool"
            },
            {
              "internalType": "uint96",
              "name": "votes",
              "type": "uint96"
            }
          ],
          "internalType": "struct GovernorAlpha.Receipt",
          "name": "",
          "type": "tuple"
        }
      ],
      "stateMutability": "view",
      "type": "function"
    },
    {
      "inputs": [
        {
          "internalType": "uint256",
          "name": "proposalId",
          "type": "uint256"
        }
      ],
      "name": "state",
      "outputs": [
        {
          "internalType": "enum GovernorAlpha.ProposalState",
          "name": "",
          "type": "uint8"
        }
      ],
      "stateMutability": "view",
      "type": "function"
    },
    {
      "inputs": [
        {
          "internalType": "uint256",
          "name": "proposalId",
          "type": "uint256"
        },
        {
          "internalType": "bool",
          "name": "support",
          "type": "bool"
        }
      ],
      "name": "castVote",
      "outputs": [],
      "stateMutability": "nonpayable",
      "type": "function"
    },
    {
      "inputs": [
        {
          "internalType": "uint256",
          "name": "proposalId",
          "type": "uint256"
        },
        {
          "internalType": "bool",
          "name": "support",
          "type": "bool"
        },
        {
          "internalType": "uint8",
          "name": "v",
          "type": "uint8"
        },
        {
          "internalType": "bytes32",
          "name": "r",
          "type": "bytes32"
        },
        {
          "internalType": "bytes32",
          "name": "s",
          "type": "bytes32"
        }
      ],
      "name": "castVoteBySig",
      "outputs": [],
      "stateMutability": "nonpayable",
      "type": "function"
    },
    {
      "inputs": [],
      "name": "__acceptAdmin",
      "outputs": [],
      "stateMutability": "nonpayable",
      "type": "function"
    },
    {
      "inputs": [],
      "name": "__abdicate",
      "outputs": [],
      "stateMutability": "nonpayable",
      "type": "function"
    },
    {
      "inputs": [
        {
          "internalType": "address",
          "name": "newPendingAdmin",
          "type": "address"
        },
        {
          "internalType": "uint256",
          "name": "eta",
          "type": "uint256"
        }
      ],
      "name": "__queueSetTimelockPendingAdmin",
      "outputs": [],
      "stateMutability": "nonpayable",
      "type": "function"
    },
    {
      "inputs": [
        {
          "internalType": "address",
          "name": "newPendingAdmin",
          "type": "address"
        },
        {
          "internalType": "uint256",
          "name": "eta",
          "type": "uint256"
        }
      ],
      "name": "__executeSetTimelockPendingAdmin",
      "outputs": [],
      "stateMutability": "nonpayable",
      "type": "function"
    }
  ],
  "bytecode": "0x60806040523480156200001157600080fd5b50604051620034343803806200343483398101604081905262000034916200011c565b6001600160a01b038416620000665760405162461bcd60e51b81526004016200005d9062000170565b60405180910390fd5b6001600160a01b0383166200008f5760405162461bcd60e51b81526004016200005d90620001c6565b6001600160a01b038216620000b85760405162461bcd60e51b81526004016200005d906200019b565b600180546001600160a01b03199081166001600160a01b0396871617909155600280548216948616949094179093556003805490931691909316179055600055620001ec565b80516001600160a01b03811681146200011657600080fd5b92915050565b6000806000806080858703121562000132578384fd5b6200013e8686620000fe565b93506200014f8660208701620000fe565b9250620001608660408701620000fe565b6060959095015193969295505050565b602080825260119082015270496e76616c69642074696d656c6f636b5f60781b604082015260600190565b602080825260119082015270496e76616c696420677561726469616e5f60781b604082015260600190565b6020808252600c908201526b496e76616c69642073726e5f60a01b604082015260600190565b61323880620001fc6000396000f3fe60806040526004361061019c5760003560e01c80634634c61f116100ec578063d33219b41161008a578063ddf0b00911610064578063ddf0b00914610456578063deaaa7cc14610476578063e23a9a521461048b578063fe0d94c1146104b85761019c565b8063d33219b41461040c578063da35c66414610421578063da95691a146104365761019c565b80637bdbe4d0116100c65780637bdbe4d0146103ad57806391500671146103c2578063b58131b0146103e2578063b9a61961146103f75761019c565b80634634c61f146103635780635f792cc614610383578063760fbc13146103985761019c565b806321f43e42116101595780633932abb1116101335780633932abb1146102df5780633e4f49e6146102f457806340e58ee514610321578063452a9320146103415761019c565b806321f43e421461027a57806324bc1a641461029a578063328dd982146102af5761019c565b8063013cf08b146101a157806302a251a3146101df57806306fdde031461020157806315373e3d1461022357806317977c611461024557806320606b7014610265575b600080fd5b3480156101ad57600080fd5b506101c16101bc3660046123ef565b6104cb565b6040516101d6999897969594939291906130f7565b60405180910390f35b3480156101eb57600080fd5b506101f4610524565b6040516101d69190612815565b34801561020d57600080fd5b5061021661052a565b6040516101d6919061288c565b34801561022f57600080fd5b5061024361023e366004612433565b61055a565b005b34801561025157600080fd5b506101f4610260366004612237565b610569565b34801561027157600080fd5b506101f461057b565b34801561028657600080fd5b50610243610295366004612252565b61059f565b3480156102a657600080fd5b506101f4610687565b3480156102bb57600080fd5b506102cf6102ca3660046123ef565b610695565b6040516101d694939291906127bd565b3480156102eb57600080fd5b506101f4610924565b34801561030057600080fd5b5061031461030f3660046123ef565b610929565b6040516101d69190612878565b34801561032d57600080fd5b5061024361033c3660046123ef565b610aab565b34801561034d57600080fd5b50610356610d14565b6040516101d6919061266e565b34801561036f57600080fd5b5061024361037e366004612462565b610d23565b34801561038f57600080fd5b50610356610ed3565b3480156103a457600080fd5b50610243610ee2565b3480156103b957600080fd5b506101f4610f1e565b3480156103ce57600080fd5b506102436103dd366004612252565b610f23565b3480156103ee57600080fd5b506101f461101f565b34801561040357600080fd5b5061024361102d565b34801561041857600080fd5b506103566110c1565b34801561042d57600080fd5b506101f46110d0565b34801561044257600080fd5b506101f461045136600461227c565b6110d6565b34801561046257600080fd5b506102436104713660046123ef565b6114f2565b34801561048257600080fd5b506101f4611761565b34801561049757600080fd5b506104ab6104a6366004612407565b611785565b6040516101d69190613031565b6102436104c63660046123ef565b6117f4565b6005602052600090815260409020805460018201546002830154600784015460088501546009860154600a870154600b9097015495966001600160a01b0390951695939492939192909160ff8082169161010090041689565b60005490565b60405180604001604052806014815260200173536972656e20476f7665726e6f7220416c70686160601b81525081565b6105653383836119b9565b5050565b60066020526000908152604090205481565b7f8cad95687ba82c2ce50e74f7b754645e5117c3a5bec8151c0726d5857980a86681565b6003546001600160a01b031633146105d25760405162461bcd60e51b81526004016105c9906129d1565b60405180910390fd5b6001546040516001600160a01b0390911690630825f38f9082906000906105fd90879060200161266e565b604051602081830303815290604052856040518563ffffffff1660e01b815260040161062c949392919061269b565b600060405180830381600087803b15801561064657600080fd5b505af115801561065a573d6000803e3d6000fd5b505050506040513d6000823e601f3d908101601f19168201604052610682919081019061237c565b505050565b6954b40b1f852bda00000090565b6060806060806000600560008781526020019081526020016000209050806003018160040182600501836006018380548060200260200160405190810160405280929190818152602001828054801561071757602002820191906000526020600020905b81546001600160a01b031681526001909101906020018083116106f9575b505050505093508280548060200260200160405190810160405280929190818152602001828054801561076957602002820191906000526020600020905b815481526020019060010190808311610755575b5050505050925081805480602002602001604051908101604052809291908181526020016000905b8282101561083c5760008481526020908190208301805460408051601f60026000196101006001871615020190941693909304928301859004850281018501909152818152928301828280156108285780601f106107fd57610100808354040283529160200191610828565b820191906000526020600020905b81548152906001019060200180831161080b57829003601f168201915b505050505081526020019060010190610791565b50505050915080805480602002602001604051908101604052809291908181526020016000905b8282101561090e5760008481526020908190208301805460408051601f60026000196101006001871615020190941693909304928301859004850281018501909152818152928301828280156108fa5780601f106108cf576101008083540402835291602001916108fa565b820191906000526020600020905b8154815290600101906020018083116108dd57829003601f168201915b505050505081526020019060010190610863565b5050505090509450945094509450509193509193565b600190565b6000816004541015801561093d5750600082115b6109595760405162461bcd60e51b81526004016105c990612a43565b6000828152600560205260409020600b81015460ff161561097e576002915050610aa6565b80600701544311610993576000915050610aa6565b806008015443116109a8576001915050610aa6565b80600a015481600901541115806109c957506109c2610687565b8160090154105b156109d8576003915050610aa6565b60028101546109eb576004915050610aa6565b600b810154610100900460ff1615610a07576007915050610aa6565b6002810154600154604080516360d143f160e11b81529051610a9093926001600160a01b03169163c1a287e2916004808301926020929190829003018186803b158015610a5357600080fd5b505afa158015610a67573d6000803e3d6000fd5b505050506040513d601f19601f82011682018060405250810190610a8b9190612364565b611b82565b4210610aa0576006915050610aa6565b60059150505b919050565b6000610ab682610929565b90506007816007811115610ac657fe5b1415610ae45760405162461bcd60e51b81526004016105c990612f0c565b60008281526005602052604090206003546001600160a01b0316331480610baf5750610b0e61101f565b6002546001838101546001600160a01b039283169263782d6fe192911690610b37904390611bae565b6040518363ffffffff1660e01b8152600401610b54929190612682565b60206040518083038186803b158015610b6c57600080fd5b505afa158015610b80573d6000803e3d6000fd5b505050506040513d601f19601f82011682018060405250810190610ba491906124b8565b6001600160601b0316105b610bcb5760405162461bcd60e51b81526004016105c990612cd8565b600b8101805460ff1916600117905560005b6003820154811015610cd7576001546003830180546001600160a01b039092169163591fcdfe919084908110610c0f57fe5b6000918252602090912001546004850180546001600160a01b039092169185908110610c3757fe5b9060005260206000200154856005018581548110610c5157fe5b90600052602060002001866006018681548110610c6a57fe5b9060005260206000200187600201546040518663ffffffff1660e01b8152600401610c99959493929190612784565b600060405180830381600087803b158015610cb357600080fd5b505af1158015610cc7573d6000803e3d6000fd5b505060019092019150610bdd9050565b507f789cf55be980739dad1d0699b93b58e806b51c9d96619bfa8fe0a28abaa7b30c83604051610d079190612815565b60405180910390a1505050565b6003546001600160a01b031681565b604080518082019091526014815273536972656e20476f7665726e6f7220416c70686160601b60209091015260007f8cad95687ba82c2ce50e74f7b754645e5117c3a5bec8151c0726d5857980a8667fcefb778359e5e6319b977a0047ad19b2ff4a533ccddacdbaad5e075610f48fa1610d9b611bd6565b30604051602001610daf949392919061281e565b60405160208183030381529060405280519060200120905060007f8e25870c07e0b0b3884c78da52790939a455c275406c44ae8b434b692fb916ee8787604051602001610dfe93929190612842565b60405160208183030381529060405280519060200120905060008282604051602001610e2b929190612653565b604051602081830303815290604052805190602001209050600060018288888860405160008152602001604052604051610e68949392919061285a565b6020604051602081039080840390855afa158015610e8a573d6000803e3d6000fd5b5050604051601f1901519150506001600160a01b038116610ebd5760405162461bcd60e51b81526004016105c990612e3a565b610ec8818a8a6119b9565b505050505050505050565b6002546001600160a01b031681565b6003546001600160a01b03163314610f0c5760405162461bcd60e51b81526004016105c990612fdb565b600380546001600160a01b0319169055565b600a90565b6001600160a01b038216610f495760405162461bcd60e51b81526004016105c990612ad9565b6003546001600160a01b03163314610f735760405162461bcd60e51b81526004016105c990612b8b565b6001546040516001600160a01b0390911690633a66f901908290600090610f9e90879060200161266e565b604051602081830303815290604052856040518563ffffffff1660e01b8152600401610fcd949392919061269b565b602060405180830381600087803b158015610fe757600080fd5b505af1158015610ffb573d6000803e3d6000fd5b505050506040513d601f19601f820116820180604052508101906106829190612364565b69152d02c7e14af680000090565b6003546001600160a01b031633146110575760405162461bcd60e51b81526004016105c99061289f565b600160009054906101000a90046001600160a01b03166001600160a01b0316630e18b6816040518163ffffffff1660e01b8152600401600060405180830381600087803b1580156110a757600080fd5b505af11580156110bb573d6000803e3d6000fd5b50505050565b6001546001600160a01b031681565b60045481565b60006110e061101f565b6002546001600160a01b031663782d6fe1336110fd436001611bae565b6040518363ffffffff1660e01b815260040161111a929190612682565b60206040518083038186803b15801561113257600080fd5b505afa158015611146573d6000803e3d6000fd5b505050506040513d601f19601f8201168201806040525081019061116a91906124b8565b6001600160601b0316116111905760405162461bcd60e51b81526004016105c990612ddd565b845186511480156111a2575083518651145b80156111af575082518651145b6111cb5760405162461bcd60e51b81526004016105c990612c6e565b85516111e95760405162461bcd60e51b81526004016105c990612d91565b6111f1610f1e565b865111156112115760405162461bcd60e51b81526004016105c990612bfb565b33600090815260066020526040902054801561128e57600061123282610929565b9050600181600781111561124257fe5b14156112605760405162461bcd60e51b81526004016105c990612e89565b600081600781111561126e57fe5b141561128c5760405162461bcd60e51b81526004016105c990612b08565b505b600061129c43610a8b610924565b905060006112ac82610a8b610524565b60048054600101905590506112bf611d39565b604051806101a001604052806004548152602001336001600160a01b03168152602001600081526020018b81526020018a815260200189815260200188815260200184815260200183815260200160008152602001600081526020016000151581526020016000151581525090508060056000836000015181526020019081526020016000206000820151816000015560208201518160010160006101000a8154816001600160a01b0302191690836001600160a01b031602179055506040820151816002015560608201518160030190805190602001906113a2929190611dae565b50608082015180516113be916004840191602090910190611e13565b5060a082015180516113da916005840191602090910190611e5a565b5060c082015180516113f6916006840191602090910190611eb3565b5060e082015181600701556101008201518160080155610120820151816009015561014082015181600a015561016082015181600b0160006101000a81548160ff02191690831515021790555061018082015181600b0160016101000a81548160ff02191690831515021790555090505080600001516006600083602001516001600160a01b03166001600160a01b03168152602001908152602001600020819055507f7d84a6263ae0d98d3329bd7b46bb4e8d6f98cd35a7adb45c274c8b7fd5ebd5e08160000151338c8c8c8c89898e6040516114dc9998979695949392919061305f565b60405180910390a1519998505050505050505050565b60046114fd82610929565b600781111561150857fe5b146115255760405162461bcd60e51b81526004016105c9906128fc565b60008181526005602090815260408083206001548251630d48571f60e31b8152925191949361157f9342936001600160a01b0390931692636a42b8f892600480840193919291829003018186803b158015610a5357600080fd5b905060005b60038301548110156117275761171f8360030182815481106115a257fe5b6000918252602090912001546004850180546001600160a01b0390921691849081106115ca57fe5b90600052602060002001548560050184815481106115e457fe5b600091825260209182902001805460408051601f60026000196101006001871615020190941693909304928301859004850281018501909152818152928301828280156116725780601f1061164757610100808354040283529160200191611672565b820191906000526020600020905b81548152906001019060200180831161165557829003601f168201915b505050505086600601858154811061168657fe5b600091825260209182902001805460408051601f60026000196101006001871615020190941693909304928301859004850281018501909152818152928301828280156117145780601f106116e957610100808354040283529160200191611714565b820191906000526020600020905b8154815290600101906020018083116116f757829003601f168201915b505050505086611bda565b600101611584565b50600282018190556040517f9a2e42fd6722813d69113e7d0079d3d940171428df7373df9c7f7617cfda289290610d079085908490613143565b7f8e25870c07e0b0b3884c78da52790939a455c275406c44ae8b434b692fb916ee81565b61178d611f0c565b5060008281526005602090815260408083206001600160a01b0385168452600c018252918290208251606081018452905460ff80821615158352610100820416151592820192909252620100009091046001600160601b0316918101919091525b92915050565b60056117ff82610929565b600781111561180a57fe5b146118275760405162461bcd60e51b81526004016105c990612966565b6000818152600560205260408120600b8101805461ff001916610100179055905b600382015481101561197d576001546004830180546001600160a01b0390921691630825f38f91908490811061187a57fe5b906000526020600020015484600301848154811061189457fe5b6000918252602090912001546004860180546001600160a01b0390921691869081106118bc57fe5b90600052602060002001548660050186815481106118d657fe5b906000526020600020018760060187815481106118ef57fe5b9060005260206000200188600201546040518763ffffffff1660e01b815260040161191e959493929190612784565b6000604051808303818588803b15801561193757600080fd5b505af115801561194b573d6000803e3d6000fd5b50505050506040513d6000823e601f3d908101601f19168201604052611974919081019061237c565b50600101611848565b507f712ae1383f79ac853f8d882153778e0260ef8f03b504e2866e0593e04d2b291f826040516119ad9190612815565b60405180910390a15050565b60016119c483610929565b60078111156119cf57fe5b146119ec5760405162461bcd60e51b81526004016105c990612f62565b60008281526005602090815260408083206001600160a01b0387168452600c8101909252909120805460ff1615611a355760405162461bcd60e51b81526004016105c990612a8c565b600254600783015460405163782d6fe160e01b81526000926001600160a01b03169163782d6fe191611a6b918a91600401612682565b60206040518083038186803b158015611a8357600080fd5b505afa158015611a97573d6000803e3d6000fd5b505050506040513d601f19601f82011682018060405250810190611abb91906124b8565b90508315611ae457611ada8360090154826001600160601b0316611b82565b6009840155611b01565b611afb83600a0154826001600160601b0316611b82565b600a8401555b8154600160ff199091161761ff00191661010085151502176dffffffffffffffffffffffff00001916620100006001600160601b038316021782556040517f877856338e13f63d0c36822ff0ef736b80934cd90574a3a5bc9262c39d217c4690611b72908890889088908690612707565b60405180910390a1505050505050565b600082820183811015611ba75760405162461bcd60e51b81526004016105c990612c43565b9392505050565b600082821115611bd05760405162461bcd60e51b81526004016105c990612fac565b50900390565b4690565b6001546040516001600160a01b039091169063f2b0653790611c089088908890889088908890602001612738565b604051602081830303815290604052805190602001206040518263ffffffff1660e01b8152600401611c3a9190612815565b60206040518083038186803b158015611c5257600080fd5b505afa158015611c66573d6000803e3d6000fd5b505050506040513d601f19601f82011682018060405250810190611c8a9190612348565b15611ca75760405162461bcd60e51b81526004016105c990612d27565b600154604051633a66f90160e01b81526001600160a01b0390911690633a66f90190611cdf9088908890889088908890600401612738565b602060405180830381600087803b158015611cf957600080fd5b505af1158015611d0d573d6000803e3d6000fd5b505050506040513d601f19601f82011682018060405250810190611d319190612364565b505050505050565b604051806101a001604052806000815260200160006001600160a01b031681526020016000815260200160608152602001606081526020016060815260200160608152602001600081526020016000815260200160008152602001600081526020016000151581526020016000151581525090565b828054828255906000526020600020908101928215611e03579160200282015b82811115611e0357825182546001600160a01b0319166001600160a01b03909116178255602090920191600190910190611dce565b50611e0f929150611f2c565b5090565b828054828255906000526020600020908101928215611e4e579160200282015b82811115611e4e578251825591602001919060010190611e33565b50611e0f929150611f4b565b828054828255906000526020600020908101928215611ea7579160200282015b82811115611ea75782518051611e97918491602090910190611f60565b5091602001919060010190611e7a565b50611e0f929150611fcd565b828054828255906000526020600020908101928215611f00579160200282015b82811115611f005782518051611ef0918491602090910190611f60565b5091602001919060010190611ed3565b50611e0f929150611fea565b604080516060810182526000808252602082018190529181019190915290565b5b80821115611e0f5780546001600160a01b0319168155600101611f2d565b5b80821115611e0f5760008155600101611f4c565b828054600181600116156101000203166002900490600052602060002090601f016020900481019282601f10611fa157805160ff1916838001178555611e4e565b82800160010185558215611e4e5791820182811115611e4e578251825591602001919060010190611e33565b80821115611e0f576000611fe18282612007565b50600101611fcd565b80821115611e0f576000611ffe8282612007565b50600101611fea565b50805460018160011615610100020316600290046000825580601f1061202d575061204b565b601f01602090049060005260206000209081019061204b9190611f4b565b50565b80356001600160a01b03811681146117ee57600080fd5b600082601f830112612075578081fd5b813561208861208382613178565b613151565b8181529150602080830190848101818402860182018710156120a957600080fd5b60005b848110156120d0576120be888361204e565b845292820192908201906001016120ac565b505050505092915050565b600082601f8301126120eb578081fd5b81356120f961208382613178565b818152915060208083019084810160005b848110156120d057612121888484358a01016121e9565b8452928201929082019060010161210a565b600082601f830112612143578081fd5b813561215161208382613178565b818152915060208083019084810160005b848110156120d057612179888484358a01016121e9565b84529282019290820190600101612162565b600082601f83011261219b578081fd5b81356121a961208382613178565b8181529150602080830190848101818402860182018710156121ca57600080fd5b60005b848110156120d0578135845292820192908201906001016121cd565b600082601f8301126121f9578081fd5b813561220761208382613198565b915080825283602082850101111561221e57600080fd5b8060208401602084013760009082016020015292915050565b600060208284031215612248578081fd5b611ba7838361204e565b60008060408385031215612264578081fd5b61226e848461204e565b946020939093013593505050565b600080600080600060a08688031215612293578081fd5b853567ffffffffffffffff808211156122aa578283fd5b6122b689838a01612065565b965060208801359150808211156122cb578283fd5b6122d789838a0161218b565b955060408801359150808211156122ec578283fd5b6122f889838a01612133565b9450606088013591508082111561230d578283fd5b61231989838a016120db565b9350608088013591508082111561232e578283fd5b5061233b888289016121e9565b9150509295509295909350565b600060208284031215612359578081fd5b8151611ba7816131f4565b600060208284031215612375578081fd5b5051919050565b60006020828403121561238d578081fd5b815167ffffffffffffffff8111156123a3578182fd5b8201601f810184136123b3578182fd5b80516123c161208382613198565b8181528560208385010111156123d5578384fd5b6123e68260208301602086016131c8565b95945050505050565b600060208284031215612400578081fd5b5035919050565b60008060408385031215612419578182fd5b8235915061242a846020850161204e565b90509250929050565b60008060408385031215612445578182fd5b823591506020830135612457816131f4565b809150509250929050565b600080600080600060a08688031215612479578283fd5b85359450602086013561248b816131f4565b9350604086013560ff811681146124a0578384fd5b94979396509394606081013594506080013592915050565b6000602082840312156124c9578081fd5b81516001600160601b0381168114611ba7578182fd5b6000815180845260208085019450808401835b838110156125175781516001600160a01b0316875295820195908201906001016124f2565b509495945050505050565b6000815180845260208085018081965082840281019150828601855b858110156125685782840389526125568483516125a4565b9885019893509084019060010161253e565b5091979650505050505050565b6000815180845260208085019450808401835b8381101561251757815187529582019590820190600101612588565b600081518084526125bc8160208601602086016131c8565b601f01601f19169290920160200192915050565b600081546001808216600081146125ee576001811461260c5761264a565b60028304607f16865260ff198316602087015260408601935061264a565b6002830480875261261c866131bc565b60005b828110156126405781546020828b010152848201915060208101905061261f565b8801602001955050505b50505092915050565b61190160f01b81526002810192909252602282015260420190565b6001600160a01b0391909116815260200190565b6001600160a01b03929092168252602082015260400190565b600060018060a01b038616825284602083015260a06040830152601860a08301527f73657450656e64696e6741646d696e286164647265737329000000000000000060c083015260e060608301526126f660e08301856125a4565b905082608083015295945050505050565b6001600160a01b039490941684526020840192909252151560408301526001600160601b0316606082015260800190565b600060018060a01b038716825285602083015260a0604083015261275f60a08301866125a4565b828103606084015261277181866125a4565b9150508260808301529695505050505050565b600060018060a01b038716825285602083015260a060408301526127ab60a08301866125d0565b828103606084015261277181866125d0565b6000608082526127d060808301876124df565b82810360208401526127e28187612575565b905082810360408401526127f68186612522565b9050828103606084015261280a8185612522565b979650505050505050565b90815260200190565b938452602084019290925260408301526001600160a01b0316606082015260800190565b92835260208301919091521515604082015260600190565b93845260ff9290921660208401526040830152606082015260800190565b602081016008831061288657fe5b91905290565b600060208252611ba760208301846125a4565b60208082526039908201527f476f7665726e6f72416c7068613a3a5f5f61636365707441646d696e3a20736560408201527f6e646572206d75737420626520676f7620677561726469616e00000000000000606082015260800190565b60208082526044908201527f476f7665726e6f72416c7068613a3a71756575653a2070726f706f73616c206360408201527f616e206f6e6c79206265207175657565642069662069742069732073756363656060820152631959195960e21b608082015260a00190565b60208082526045908201527f476f7665726e6f72416c7068613a3a657865637574653a2070726f706f73616c60408201527f2063616e206f6e6c7920626520657865637574656420696620697420697320716060820152641d595d595960da1b608082015260a00190565b6020808252604c908201527f476f7665726e6f72416c7068613a3a5f5f6578656375746553657454696d656c60408201527f6f636b50656e64696e6741646d696e3a2073656e646572206d7573742062652060608201526b33b7bb1033bab0b93234b0b760a11b608082015260a00190565b60208082526029908201527f476f7665726e6f72416c7068613a3a73746174653a20696e76616c69642070726040820152681bdc1bdcd85b081a5960ba1b606082015260800190565b6020808252602d908201527f476f7665726e6f72416c7068613a3a5f63617374566f74653a20766f7465722060408201526c185b1c9958591e481d9bdd1959609a1b606082015260800190565b60208082526015908201527424b73b30b634b2103832b73234b7339030b236b4b760591b604082015260600190565b60208082526059908201527f476f7665726e6f72416c7068613a3a70726f706f73653a206f6e65206c69766560408201527f2070726f706f73616c207065722070726f706f7365722c20666f756e6420616e60608201527f20616c72656164792070656e64696e672070726f706f73616c00000000000000608082015260a00190565b6020808252604a908201527f476f7665726e6f72416c7068613a3a5f5f717565756553657454696d656c6f6360408201527f6b50656e64696e6741646d696e3a2073656e646572206d75737420626520676f6060820152693b1033bab0b93234b0b760b11b608082015260a00190565b60208082526028908201527f476f7665726e6f72416c7068613a3a70726f706f73653a20746f6f206d616e7960408201526720616374696f6e7360c01b606082015260800190565b6020808252601190820152706164646974696f6e206f766572666c6f7760781b604082015260600190565b60208082526044908201527f476f7665726e6f72416c7068613a3a70726f706f73653a2070726f706f73616c60408201527f2066756e6374696f6e20696e666f726d6174696f6e206172697479206d69736d6060820152630c2e8c6d60e31b608082015260a00190565b6020808252602f908201527f476f7665726e6f72416c7068613a3a63616e63656c3a2070726f706f7365722060408201526e18589bdd99481d1a1c995cda1bdb19608a1b606082015260800190565b60208082526044908201527f476f7665726e6f72416c7068613a3a5f71756575654f725265766572743a207060408201527f726f706f73616c20616374696f6e20616c7265616479207175657565642061746060820152632065746160e01b608082015260a00190565b6020808252602c908201527f476f7665726e6f72416c7068613a3a70726f706f73653a206d7573742070726f60408201526b7669646520616374696f6e7360a01b606082015260800190565b6020808252603f908201527f476f7665726e6f72416c7068613a3a70726f706f73653a2070726f706f73657260408201527f20766f7465732062656c6f772070726f706f73616c207468726573686f6c6400606082015260800190565b6020808252602f908201527f476f7665726e6f72416c7068613a3a63617374566f746542795369673a20696e60408201526e76616c6964207369676e617475726560881b606082015260800190565b60208082526058908201527f476f7665726e6f72416c7068613a3a70726f706f73653a206f6e65206c69766560408201527f2070726f706f73616c207065722070726f706f7365722c20666f756e6420616e60608201527f20616c7265616479206163746976652070726f706f73616c0000000000000000608082015260a00190565b60208082526036908201527f476f7665726e6f72416c7068613a3a63616e63656c3a2063616e6e6f742063616040820152751b98d95b08195e1958dd5d1959081c1c9bdc1bdcd85b60521b606082015260800190565b6020808252602a908201527f476f7665726e6f72416c7068613a3a5f63617374566f74653a20766f74696e67604082015269081a5cc818db1bdcd95960b21b606082015260800190565b6020808252601590820152747375627472616374696f6e20756e646572666c6f7760581b604082015260600190565b60208082526036908201527f476f7665726e6f72416c7068613a3a5f5f61626469636174653a2073656e6465604082015275391036bab9ba1031329033b7bb1033bab0b93234b0b760511b606082015260800190565b8151151581526020808301511515908201526040918201516001600160601b03169181019190915260600190565b8981526001600160a01b03891660208201526101206040820181905260009061308a8382018b6124df565b9050828103606084015261309e818a612575565b905082810360808401526130b28189612522565b905082810360a08401526130c68188612522565b90508560c08401528460e08401528281036101008401526130e781856125a4565b9c9b505050505050505050505050565b9889526001600160a01b0397909716602089015260408801959095526060870193909352608086019190915260a085015260c0840152151560e083015215156101008201526101200190565b918252602082015260400190565b60405181810167ffffffffffffffff8111828210171561317057600080fd5b604052919050565b600067ffffffffffffffff82111561318e578081fd5b5060209081020190565b600067ffffffffffffffff8211156131ae578081fd5b50601f01601f191660200190565b60009081526020902090565b60005b838110156131e35781810151838201526020016131cb565b838111156110bb5750506000910152565b801515811461204b57600080fdfea26469706673582212201e49179ec4d85deea42f385ce94815c3c5169bc290ff32ee93ccf00d02e4b03064736f6c634300060c0033",
  "immutableReferences": {},
  "source": "pragma solidity 0.6.12;\npragma experimental ABIEncoderV2;\n\ncontract GovernorAlpha {\n    /// @notice The name of this contract\n    string public constant name = \"Siren Governor Alpha\";\n\n    /// @notice The number of votes in support of a proposal required in order for a quorum to be reached and for a vote to succeed\n    function quorumVotes() public pure returns (uint) { return 400000e18; } // 400,000 = 4% of SRN\n\n    /// @notice The number of votes required in order for a voter to become a proposer\n    function proposalThreshold() public pure returns (uint) { return 100000e18; } // 100,000 = 1% of SRN\n\n    /// @notice The maximum number of actions that can be included in a proposal\n    function proposalMaxOperations() public pure returns (uint) { return 10; } // 10 actions\n\n    /// @notice The delay before voting on a proposal may take place, once proposed\n    function votingDelay() public pure returns (uint) { return 1; } // 1 block\n\n    /// @dev Voting period in blocks\n    uint private _votingPeriod; // 3 Days is 17280 in blocks (assuming 15s blocks)\n\n    /// @notice The duration of voting on a proposal, in blocks\n    function votingPeriod() public view returns (uint) { return _votingPeriod; }\n\n    /// @notice The address of the Siren Protocol Timelock\n    TimelockInterface public timelock;\n\n    /// @notice The address of the Siren governance token\n    SirenTokenInterface public sirenToken;\n\n    /// @notice The address of the Governor Guardian\n    address public guardian;\n\n    /// @notice The total number of proposals\n    uint public proposalCount;\n\n    struct Proposal {\n        /// @notice Unique id for looking up a proposal\n        uint id;\n\n        /// @notice Creator of the proposal\n        address proposer;\n\n        /// @notice The timestamp that the proposal will be available for execution, set once the vote succeeds\n        uint eta;\n\n        /// @notice the ordered list of target addresses for calls to be made\n        address[] targets;\n\n        /// @notice The ordered list of values (i.e. msg.value) to be passed to the calls to be made\n        uint[] values;\n\n        /// @notice The ordered list of function signatures to be called\n        string[] signatures;\n\n        /// @notice The ordered list of calldata to be passed to each call\n        bytes[] calldatas;\n\n        /// @notice The block at which voting begins: holders must delegate their votes prior to this block\n        uint startBlock;\n\n        /// @notice The block at which voting ends: votes must be cast prior to this block\n        uint endBlock;\n\n        /// @notice Current number of votes in favor of this proposal\n        uint forVotes;\n\n        /// @notice Current number of votes in opposition to this proposal\n        uint againstVotes;\n\n        /// @notice Flag marking whether the proposal has been canceled\n        bool canceled;\n\n        /// @notice Flag marking whether the proposal has been executed\n        bool executed;\n\n        /// @notice Receipts of ballots for the entire set of voters\n        mapping (address => Receipt) receipts;\n    }\n\n    /// @notice Ballot receipt record for a voter\n    struct Receipt {\n        /// @notice Whether or not a vote has been cast\n        bool hasVoted;\n\n        /// @notice Whether or not the voter supports the proposal\n        bool support;\n\n        /// @notice The number of votes the voter had, which were cast\n        uint96 votes;\n    }\n\n    /// @notice Possible states that a proposal may be in\n    enum ProposalState {\n        Pending,\n        Active,\n        Canceled,\n        Defeated,\n        Succeeded,\n        Queued,\n        Expired,\n        Executed\n    }\n\n    /// @notice The official record of all proposals ever proposed\n    mapping (uint => Proposal) public proposals;\n\n    /// @notice The latest proposal for each proposer\n    mapping (address => uint) public latestProposalIds;\n\n    /// @notice The EIP-712 typehash for the contract's domain\n    bytes32 public constant DOMAIN_TYPEHASH = keccak256(\"EIP712Domain(string name,uint256 chainId,address verifyingContract)\");\n\n    /// @notice The EIP-712 typehash for the ballot struct used by the contract\n    bytes32 public constant BALLOT_TYPEHASH = keccak256(\"Ballot(uint256 proposalId,bool support)\");\n\n    /// @notice An event emitted when a new proposal is created\n    event ProposalCreated(uint id, address proposer, address[] targets, uint[] values, string[] signatures, bytes[] calldatas, uint startBlock, uint endBlock, string description);\n\n    /// @notice An event emitted when a vote has been cast on a proposal\n    event VoteCast(address voter, uint proposalId, bool support, uint votes);\n\n    /// @notice An event emitted when a proposal has been canceled\n    event ProposalCanceled(uint id);\n\n    /// @notice An event emitted when a proposal has been queued in the Timelock\n    event ProposalQueued(uint id, uint eta);\n\n    /// @notice An event emitted when a proposal has been executed in the Timelock\n    event ProposalExecuted(uint id);\n\n    constructor(address timelock_, address srn_, address guardian_, uint votePeriodBlocks) public {\n        require(timelock_ != address(0x0), \"Invalid timelock_\");\n        require(srn_ != address(0x0), \"Invalid srn_\");\n        require(guardian_ != address(0x0), \"Invalid guardian_\");\n        \n        timelock = TimelockInterface(timelock_);\n        sirenToken = SirenTokenInterface(srn_);\n        guardian = guardian_;\n        _votingPeriod = votePeriodBlocks;\n    }\n\n    function propose(address[] memory targets, uint[] memory values, string[] memory signatures, bytes[] memory calldatas, string memory description) public returns (uint) {\n        require(sirenToken.getPriorVotes(msg.sender, sub256(block.number, 1)) > proposalThreshold(), \"GovernorAlpha::propose: proposer votes below proposal threshold\");\n        require(targets.length == values.length && targets.length == signatures.length && targets.length == calldatas.length, \"GovernorAlpha::propose: proposal function information arity mismatch\");\n        require(targets.length != 0, \"GovernorAlpha::propose: must provide actions\");\n        require(targets.length <= proposalMaxOperations(), \"GovernorAlpha::propose: too many actions\");\n\n        uint latestProposalId = latestProposalIds[msg.sender];\n        if (latestProposalId != 0) {\n          ProposalState proposersLatestProposalState = state(latestProposalId);\n          require(proposersLatestProposalState != ProposalState.Active, \"GovernorAlpha::propose: one live proposal per proposer, found an already active proposal\");\n          require(proposersLatestProposalState != ProposalState.Pending, \"GovernorAlpha::propose: one live proposal per proposer, found an already pending proposal\");\n        }\n\n        uint startBlock = add256(block.number, votingDelay());\n        uint endBlock = add256(startBlock, votingPeriod());\n\n        proposalCount++;\n        Proposal memory newProposal = Proposal({\n            id: proposalCount,\n            proposer: msg.sender,\n            eta: 0,\n            targets: targets,\n            values: values,\n            signatures: signatures,\n            calldatas: calldatas,\n            startBlock: startBlock,\n            endBlock: endBlock,\n            forVotes: 0,\n            againstVotes: 0,\n            canceled: false,\n            executed: false\n        });\n\n        proposals[newProposal.id] = newProposal;\n        latestProposalIds[newProposal.proposer] = newProposal.id;\n\n        emit ProposalCreated(newProposal.id, msg.sender, targets, values, signatures, calldatas, startBlock, endBlock, description);\n        return newProposal.id;\n    }\n\n    function queue(uint proposalId) public {\n        require(state(proposalId) == ProposalState.Succeeded, \"GovernorAlpha::queue: proposal can only be queued if it is succeeded\");\n        Proposal storage proposal = proposals[proposalId];\n        uint eta = add256(block.timestamp, timelock.delay());\n        for (uint i = 0; i < proposal.targets.length; i++) {\n            _queueOrRevert(proposal.targets[i], proposal.values[i], proposal.signatures[i], proposal.calldatas[i], eta);\n        }\n        proposal.eta = eta;\n        emit ProposalQueued(proposalId, eta);\n    }\n\n    function _queueOrRevert(address target, uint value, string memory signature, bytes memory data, uint eta) internal {\n        require(!timelock.queuedTransactions(keccak256(abi.encode(target, value, signature, data, eta))), \"GovernorAlpha::_queueOrRevert: proposal action already queued at eta\");\n        timelock.queueTransaction(target, value, signature, data, eta);\n    }\n\n    function execute(uint proposalId) public payable {\n        require(state(proposalId) == ProposalState.Queued, \"GovernorAlpha::execute: proposal can only be executed if it is queued\");\n        Proposal storage proposal = proposals[proposalId];\n        proposal.executed = true;\n        for (uint i = 0; i < proposal.targets.length; i++) {\n            timelock.executeTransaction.value(proposal.values[i])(proposal.targets[i], proposal.values[i], proposal.signatures[i], proposal.calldatas[i], proposal.eta);\n        }\n        emit ProposalExecuted(proposalId);\n    }\n\n    function cancel(uint proposalId) public {\n        ProposalState state = state(proposalId);\n        require(state != ProposalState.Executed, \"GovernorAlpha::cancel: cannot cancel executed proposal\");\n\n        Proposal storage proposal = proposals[proposalId];\n        require(msg.sender == guardian || sirenToken.getPriorVotes(proposal.proposer, sub256(block.number, 1)) < proposalThreshold(), \"GovernorAlpha::cancel: proposer above threshold\");\n\n        proposal.canceled = true;\n        for (uint i = 0; i < proposal.targets.length; i++) {\n            timelock.cancelTransaction(proposal.targets[i], proposal.values[i], proposal.signatures[i], proposal.calldatas[i], proposal.eta);\n        }\n\n        emit ProposalCanceled(proposalId);\n    }\n\n    function getActions(uint proposalId) public view returns (address[] memory targets, uint[] memory values, string[] memory signatures, bytes[] memory calldatas) {\n        Proposal storage p = proposals[proposalId];\n        return (p.targets, p.values, p.signatures, p.calldatas);\n    }\n\n    function getReceipt(uint proposalId, address voter) public view returns (Receipt memory) {\n        return proposals[proposalId].receipts[voter];\n    }\n\n    function state(uint proposalId) public view returns (ProposalState) {\n        require(proposalCount >= proposalId && proposalId > 0, \"GovernorAlpha::state: invalid proposal id\");\n        Proposal storage proposal = proposals[proposalId];\n        if (proposal.canceled) {\n            return ProposalState.Canceled;\n        } else if (block.number <= proposal.startBlock) {\n            return ProposalState.Pending;\n        } else if (block.number <= proposal.endBlock) {\n            return ProposalState.Active;\n        } else if (proposal.forVotes <= proposal.againstVotes || proposal.forVotes < quorumVotes()) {\n            return ProposalState.Defeated;\n        } else if (proposal.eta == 0) {\n            return ProposalState.Succeeded;\n        } else if (proposal.executed) {\n            return ProposalState.Executed;\n        } else if (block.timestamp >= add256(proposal.eta, timelock.GRACE_PERIOD())) {\n            return ProposalState.Expired;\n        } else {\n            return ProposalState.Queued;\n        }\n    }\n\n    function castVote(uint proposalId, bool support) public {\n        return _castVote(msg.sender, proposalId, support);\n    }\n\n    function castVoteBySig(uint proposalId, bool support, uint8 v, bytes32 r, bytes32 s) public {\n        bytes32 domainSeparator = keccak256(abi.encode(DOMAIN_TYPEHASH, keccak256(bytes(name)), getChainId(), address(this)));\n        bytes32 structHash = keccak256(abi.encode(BALLOT_TYPEHASH, proposalId, support));\n        bytes32 digest = keccak256(abi.encodePacked(\"\\x19\\x01\", domainSeparator, structHash));\n        address signatory = ecrecover(digest, v, r, s);\n        require(signatory != address(0), \"GovernorAlpha::castVoteBySig: invalid signature\");\n        return _castVote(signatory, proposalId, support);\n    }\n\n    function _castVote(address voter, uint proposalId, bool support) internal {\n        require(state(proposalId) == ProposalState.Active, \"GovernorAlpha::_castVote: voting is closed\");\n        Proposal storage proposal = proposals[proposalId];\n        Receipt storage receipt = proposal.receipts[voter];\n        require(receipt.hasVoted == false, \"GovernorAlpha::_castVote: voter already voted\");\n        uint96 votes = sirenToken.getPriorVotes(voter, proposal.startBlock);\n\n        if (support) {\n            proposal.forVotes = add256(proposal.forVotes, votes);\n        } else {\n            proposal.againstVotes = add256(proposal.againstVotes, votes);\n        }\n\n        receipt.hasVoted = true;\n        receipt.support = support;\n        receipt.votes = votes;\n\n        emit VoteCast(voter, proposalId, support, votes);\n    }\n\n    function __acceptAdmin() public {\n        require(msg.sender == guardian, \"GovernorAlpha::__acceptAdmin: sender must be gov guardian\");\n        timelock.acceptAdmin();\n    }\n\n    function __abdicate() public {\n        require(msg.sender == guardian, \"GovernorAlpha::__abdicate: sender must be gov guardian\");\n        guardian = address(0);\n    }\n\n    function __queueSetTimelockPendingAdmin(address newPendingAdmin, uint eta) public {\n        require(newPendingAdmin != address(0x0), \"Invalid pending admin\");\n        require(msg.sender == guardian, \"GovernorAlpha::__queueSetTimelockPendingAdmin: sender must be gov guardian\");\n        timelock.queueTransaction(address(timelock), 0, \"setPendingAdmin(address)\", abi.encode(newPendingAdmin), eta);\n    }\n\n    function __executeSetTimelockPendingAdmin(address newPendingAdmin, uint eta) public {\n        require(msg.sender == guardian, \"GovernorAlpha::__executeSetTimelockPendingAdmin: sender must be gov guardian\");\n        timelock.executeTransaction(address(timelock), 0, \"setPendingAdmin(address)\", abi.encode(newPendingAdmin), eta);\n    }\n\n    function add256(uint256 a, uint256 b) internal pure returns (uint) {\n        uint c = a + b;\n        require(c >= a, \"addition overflow\");\n        return c;\n    }\n\n    function sub256(uint256 a, uint256 b) internal pure returns (uint) {\n        require(b <= a, \"subtraction underflow\");\n        return a - b;\n    }\n\n    function getChainId() internal pure returns (uint) {\n        uint chainId;\n        assembly { chainId := chainid() }\n        return chainId;\n    }\n}\n\ninterface TimelockInterface {\n    function delay() external view returns (uint);\n    function GRACE_PERIOD() external view returns (uint);\n    function acceptAdmin() external;\n    function queuedTransactions(bytes32 hash) external view returns (bool);\n    function queueTransaction(address target, uint value, string calldata signature, bytes calldata data, uint eta) external returns (bytes32);\n    function cancelTransaction(address target, uint value, string calldata signature, bytes calldata data, uint eta) external;\n    function executeTransaction(address target, uint value, string calldata signature, bytes calldata data, uint eta) external payable returns (bytes memory);\n}\n\ninterface SirenTokenInterface {\n    function getPriorVotes(address account, uint blockNumber) external view returns (uint96);\n}\n",
  "sourcePath": "/home/melvillian/Desktop/code/siren_markets/core/contracts/governance/GovernorAlpha.sol",
  "compiler": {
    "name": "solc",
    "version": "0.6.12+commit.27d51765.Emscripten.clang"
  },
  "schemaVersion": "3.3.1",
  "updatedAt": "2020-11-19T21:45:47.187Z",
  "devdoc": {
    "kind": "dev",
    "methods": {},
    "stateVariables": {
      "_votingPeriod": {
        "details": "Voting period in blocks"
      }
    },
    "version": 1
  },
  "userdoc": {
    "events": {
      "ProposalCanceled(uint256)": {
        "notice": "An event emitted when a proposal has been canceled"
      },
      "ProposalCreated(uint256,address,address[],uint256[],string[],bytes[],uint256,uint256,string)": {
        "notice": "An event emitted when a new proposal is created"
      },
      "ProposalExecuted(uint256)": {
        "notice": "An event emitted when a proposal has been executed in the Timelock"
      },
      "ProposalQueued(uint256,uint256)": {
        "notice": "An event emitted when a proposal has been queued in the Timelock"
      },
      "VoteCast(address,uint256,bool,uint256)": {
        "notice": "An event emitted when a vote has been cast on a proposal"
      }
    },
    "kind": "user",
    "methods": {
      "BALLOT_TYPEHASH()": {
        "notice": "The EIP-712 typehash for the ballot struct used by the contract"
      },
      "DOMAIN_TYPEHASH()": {
        "notice": "The EIP-712 typehash for the contract's domain"
      },
      "guardian()": {
        "notice": "The address of the Governor Guardian"
      },
      "latestProposalIds(address)": {
        "notice": "The latest proposal for each proposer"
      },
      "name()": {
        "notice": "The name of this contract"
      },
      "proposalCount()": {
        "notice": "The total number of proposals"
      },
      "proposalMaxOperations()": {
        "notice": "The maximum number of actions that can be included in a proposal"
      },
      "proposalThreshold()": {
        "notice": "The number of votes required in order for a voter to become a proposer"
      },
      "proposals(uint256)": {
        "notice": "The official record of all proposals ever proposed"
      },
      "quorumVotes()": {
        "notice": "The number of votes in support of a proposal required in order for a quorum to be reached and for a vote to succeed"
      },
      "sirenToken()": {
        "notice": "The address of the Siren governance token"
      },
      "timelock()": {
        "notice": "The address of the Siren Protocol Timelock"
      },
      "votingDelay()": {
        "notice": "The delay before voting on a proposal may take place, once proposed"
      },
      "votingPeriod()": {
        "notice": "The duration of voting on a proposal, in blocks"
      }
    },
    "version": 1
  }
}